:020000040800F2
:1000000000000220252C0008551F00085B1F000877
:10001000611F0008671F00086D1F00080000000036
:10002000000000000000000000000000731F000836
:10003000811F0008000000008F1F00089D1F00089E
:10004000752C0008752C0008752C0008752C00080C
:10005000752C0008752C0008752C0008752C0008FC
:10006000752C0008752C0008752C0008752C0008EC
:10007000752C0008752C0008752C0008752C0008DC
:10008000752C0008752C0008752C0008752C0008CC
:10009000752C0008752C0008752C0008752C0008BC
:1000A000752C0008A91F0008752C0008752C000885
:1000B000752C0008752C0008752C0008752C00089C
:1000C000752C0008752C0008752C0008752C00088C
:1000D000752C0008752C0008752C0008752C00087C
:1000E000752C0008752C0008752C0008752C00086C
:1000F000BD1F0008752C0008752C0008752C000821
:10010000752C0008752C0008752C0008752C00084B
:10011000752C0008752C0008752C0008752C00083B
:10012000752C0008752C0008752C0008752C00082B
:10013000752C00080000000000000000752C00086D
:10014000752C0008752C0008752C0008752C00080B
:10015000752C0008752C0008752C0008752C0008FB
:10016000752C0008752C0008752C0008752C0008EB
:10017000752C0008752C0008752C00080000000084
:1001800000000000752C00080000000000000000C6
:10019000752C00080000000000000000752C00080D
:1001A000000000000000000000000000752C0008A6
:1001B000752C0008752C0008752C0008752C00089B
:0401C000752C000892
:1001D00010B5054C237833B9044B13B10448AFF381
:1001E00000800123237010BD880000200000000063
:1001F0007464000808B5034B1BB103490348AFF30F
:10020000008008BD000000008C000020746400081D
:1002100001F0FF01102A2BDB10F0070F08D010F8B7
:10022000013B013A8B422DD010F0070F42B3F6D1BB
:10023000F0B441EA012141EA014122F007047FF0D4
:1002400000070023F0E80256083C85EA010586EA2B
:10025000010685FA47F5A3FA87F586FA47F6A5FA67
:1002600087F68EB9EED1F0BC01F0FF0102F0070273
:1002700032B110F8013B013A83EA010313B1F8D11E
:100280000020704701387047002D06BF35460338FF
:10029000073815F0010F07D1013015F4807F02BF38
:1002A000013015F4C03F0130F0BC0138704700BF89
:1002B0007BB972B90029BEBF00204FF0004106E0B3
:1002C00008BF00281CBF6FF000414FF0FF3000F066
:1002D000BFB9ADF1080C6DE904CE002909DB002B94
:1002E0001ADB00F04DF8DDF804E0DDE9022304B08C
:1002F0007047404261EB4101002B1BDB00F040F8EE
:10030000DDF804E0DDE9022304B0404261EB410185
:10031000524263EB43037047524263EB430300F0E6
:100320002FF8DDF804E0DDE9022304B0404261EB80
:1003300041017047524263EB430300F021F8DDF8BE
:1003400004E0DDE9022304B0524263EB430370474B
:1003500053B94AB9002908BF00281CBF4FF0FF312C
:100360004FF0FF3000F074B9ADF1080C6DE904CE28
:1003700000F006F8DDF804E0DDE9022304B0704780
:100380002DE9F047089D04468E46002B4DD18A4248
:10039000944669D9B2FA82F252B101FA02F3C2F17B
:1003A000200120FA01F10CFA02FC41EA030E94400C
:1003B0004FEA1C48210CBEFBF8F61FFA8CF708FB2D
:1003C00016E341EA034306FB07F199420AD91CEB05
:1003D000030306F1FF3080F01F81994240F21C8137
:1003E000023E63445B1AA4B2B3FBF8F008FB10337F
:1003F00044EA034400FB07F7A7420AD91CEB0404B4
:1004000000F1FF3380F00A81A74240F20781644483
:10041000023840EA0640E41B00261DB1D440002308
:10042000C5E900433146BDE8F0878B4209D9002D6C
:1004300000F0EF800026C5E9000130463146BDE8F6
:10044000F087B3FA83F6002E4AD18B4202D3824260
:1004500000F2F980841A61EB030301209E46002D0F
:10046000E0D0C5E9004EDDE702B9FFDEB2FA82F264
:10047000002A40F09280A1EB0C014FEA1C471FFAC2
:100480008CFE0126200CB1FBF7F307FB131140EAA9
:1004900001410EFB03F0884208D91CEB010103F176
:1004A000FF3802D2884200F2CB804346091AA4B238
:1004B000B1FBF7F007FB101144EA01440EFB00FE0C
:1004C000A64508D91CEB040400F1FF3102D2A64571
:1004D00000F2BB800846A4EB0E0440EA03409CE710
:1004E000C6F12007B34022FA07FC4CEA030C20FABD
:1004F00007F401FA06F31C43F9404FEA1C4900FADD
:1005000006F3B1FBF9F8200C1FFA8CFE09FB181159
:1005100040EA014108FB0EF0884202FA06F20BD9CC
:100520001CEB010108F1FF3A80F08880884240F21C
:100530008580A8F102086144091AA4B2B1FBF9F060
:1005400009FB101144EA014100FB0EFE8E4508D95B
:100550001CEB010100F1FF346CD28E456AD90238E0
:10056000614440EA0840A0FB0294A1EB0E01A142C5
:10057000C846A64656D353D05DB1B3EB080261EB33
:100580000E0101FA07F722FA06F3F1401F43C5E90D
:10059000007100263146BDE8F087C2F12003D84043
:1005A0000CFA02FC21FA03F3914001434FEA1C4785
:1005B0001FFA8CFEB3FBF7F007FB10360B0C43EA77
:1005C000064300FB0EF69E4204FA02F408D91CEB27
:1005D000030300F1FF382FD29E422DD90238634425
:1005E0009B1B89B2B3FBF7F607FB163341EA0341C5
:1005F00006FB0EF38B4208D91CEB010106F1FF3814
:1006000016D28B4214D9023E6144C91A46EA00460A
:1006100038E72E46284605E70646E3E61846F8E69C
:100620004B45A9D2B9EB020864EB0C0E0138A3E7E5
:100630004646EAE7204694E74046D1E7D0467BE7C6
:10064000023B614432E7304609E76444023842E73E
:10065000704700BF80B582B000AF174800F02CFB98
:10066000164800F029FB144801F0BCFB134801F0C8
:10067000B9FB00F001F90346FB71FB79002B0AD0AE
:100680000F4B5B79184600F015F90246FB791946C5
:10069000104600F02BF9084800F04CFF074800F026
:1006A00049FF054801F028F9044801F025F900BF89
:1006B0000837BD4680BD00BFA8000020A80100206B
:1006C0001403002080B586B006AF40230493654B29
:1006D000039308230293634B019304230093614B1C
:1006E00001226149614800F064FF01230093604BDF
:1006F0004FF400525C495D4800F08FFF04230093E3
:100700005B4B08225A49594800F0AAFF0223009384
:10071000574B4FF400725449544801F0CFF88023EE
:100720000293504B019310230093514B20225049C8
:100730004E4801F01DF94FF4005300934C4B4FF419
:1007400080524949494800F04DFE4FF480730493AC
:10075000474B03934FF480430293434B019302238F
:100760000093414B4FF480623E49424800F021FF24
:10077000802300933C4B4FF480523A493D4800F0AF
:100780004CFF04230093384B4FF4806236493948BC
:1007900000F066FF4FF480730093334B4FF4006218
:1007A0003049344801F08AF84FF400730293304B1B
:1007B00001934FF4807300932A4B4FF40072294940
:1007C0002C4801F0D5F840230093274B20222649DE
:1007D000284800F007FE1021244801F0EFF810210E
:1007E000244801F0EBF8012220211E4802F080FE8F
:1007F00001224FF400411C4802F07AFE0122402100
:10080000184802F075FE01224FF48071184802F07A
:100810006FFE012002F0A2FA144BD3F88430134A81
:10082000B2F888100122184602F062FE012002F0A0
:1008300095FA104BD3F884300E4AB2F88810012292
:10084000184602F055FE012002F088FA094B0122F9
:1008500083F8E320074B012283F8FB2000BFBD464D
:1008600080BD00BF0000024000040240A80000203C
:1008700000080240A801002080B582B000AF00232C
:10088000FB7101F041FD0346FF2B0CD0084B93F8A0
:100890006830002B07D0064B002283F8682000F058
:1008A000D5F90346FB71FB7918460837BD4680BD74
:1008B000A802002080B485B000AF0346FB71FB792D
:1008C000002B02D1074BFB6004E0FB79012B01D127
:1008D000054BFB60FB6818461437BD465DF8047B8A
:1008E000704700BFA8000020A8010020B0B586B066
:1008F00002AF78600B46FB706B4B1B79092B19D04C
:100900007B68002283F866200023FB7308E0FB7BF2
:100910007A689B00134400225A60FB7B0133FB730F
:100920007B6893F86430FA7B9A42F0D37B680022AC
:1009300083F864205C4B1B79013B0A2B00F29D80FD
:1009400001A252F823F000BF750900087D090008D4
:10095000A7090008D1090008E9090008F109000801
:10096000FB0900080B0A00087B0A00087B0A000844
:10097000650A0008786800F0CAFD7EE07B6893F89D
:10098000E230002B76D17B681B78012B03D07B688B
:100990001B78022B03D1786800F0B9FD6AE0786813
:1009A00000F067FD66E07B6893F8FA30002B63D1B6
:1009B0007B681B78012B03D07B681B78022B03D14B
:1009C000786800F0A4FD57E0786800F062FD53E01D
:1009D000786800F0A9F87B68002283F865207B68BE
:1009E000012283F8662048E0786800F02BFD44E09F
:1009F0000021786800F05DFD3FE000F0D7F8034685
:100A00001946786800F055FD37E07B681B78032BAA
:100A10000AD100F0CBF802467B689B6F134419465D
:100A2000786800F046FD28E07B681B78012B03D036
:100A30007B681B78022B0AD100F0B8F802467B686D
:100A4000DB6E13441946786800F033FD15E000F0C2
:100A5000ADF802467B68DB6E13441946786800F0F7
:100A600028FD0AE000F026F803461946786800F0F1
:100A7000A5FF02E000BF00E000BF0C4BDC6E0C4B9A
:100A8000DD6E0A4BD3E91C01094BD3E91C23CDE9E8
:100A9000002302460B462946204601F0CBFC00BF4E
:100AA0001037BD46B0BD00BF14030020A8000020D1
:100AB000A801002080B400AF1A4B1B790B2B2CD15E
:100AC000184B9B79013B0F2B25D801A252F823F03C
:100AD000110B0008110B0008170B0008110B000880
:100AE000170B0008170B0008170B0008110B000864
:100AF000170B0008170B0008170B0008170B00084E
:100B0000170B0008170B0008170B0008110B000843
:100B1000044B9B7901E00023FFE71846BD465DF8D2
:100B2000047B70471403002080B485B000AF786068
:100B30001D4B1B79042B31D11B4B9A797B6883F8B1
:100B400064200023FB7323E00123BB731AE0FB7BCB
:100B50007A689B0013445968BA7BFB7B9B00134463
:100B6000114A13449B791A46BB7BC3F10403DB0093
:100B70009A40FB7B0A4479689B000B445A60BB7B1C
:100B80000133BB73BB7B042BE1D9FB7B0133FB73CC
:100B90007B6893F86430FA7B9A42D5D300BF143750
:100BA000BD465DF8047B70471403002080B483B019
:100BB00000AF244B1B79072B03D0224B1B79082B4A
:100BC00039D100237B601F4B9B79BB700123FB70E5
:100BD00010E0FB781B4A13449B791A46FB78C3F15B
:100BE0000403DB0002FA03F37A6813447B60FB78AA
:100BF0000133FB70FB78042BEBD9BB78022B18D1A7
:100C00007A68114B83FB02135910D317C91A0B468C
:100C10009B000B44D11A0B467B7097F901307A6820
:100C2000D31A094A82FB03125210DB17D31A1B0195
:100C30007B607B6800E0002318460C37BD465DF8FA
:100C4000047B7047140300206766666680B483B037
:100C500000AF174B5A79174B1A71154B9A79154BF0
:100C60005A71134BB3F86630DBB2063BDAB2114B64
:100C700083F86A200023FB710CE0FB799A1DFB7955
:100C80000B490A4451780B4A13440A469A71FB797E
:100C90000133FB71074B93F86A30FA799A42ECD32F
:100CA000044B1B7918460C37BD465DF8047B704732
:100CB000A80200201403002080B582B000AF786045
:100CC0007B68CC33184600F026FD0346012B02D08A
:100CD000022B12D017E07B6893F86630002B02D00D
:100CE000786800F0C7FD7B6893F8E230002B09D1EB
:100CF0000121786800F09EFD04E00021786800F092
:100D000099FD00E000BF7B68E433184600F003FD66
:100D10000346012B02D0022B12D017E07B6893F818
:100D20006630002B02D0786800F0A4FD7B6893F851
:100D3000FA30002B09D10221786800F07BFD04E035
:100D40000021786800F076FD00E000BF7B68CC33BE
:100D5000184600F015FD0346012B01D0022B0CE0D4
:100D60007B6893F86630002B02D0786800F082FD33
:100D70000021786800F05EFD00BF7B68E433184610
:100D800000F0FEFC0346012B01D0022B0CE07B6837
:100D900093F86630002B02D0786800F06BFD0021DC
:100DA000786800F047FD00BF00BF0837BD4680BD32
:100DB00080B582B000AF3B4600221A605A600F4BEC
:100DC0000F4A1A600D4802F0FEF80346002B01D0CE
:100DD00000F065FA00233B6000237B603B46002265
:100DE0001946064802F088F90346002B01D000F0AE
:100DF00056FA00BF0837BD4680BD00BF8003002003
:100E00000074004080B58AB000AF786007F1140329
:100E100000221A605A609A60DA601A617B681B6867
:100E2000174A934227D100233B61164B1B6C154A8E
:100E300043F000531364134B1B6C03F000533B61EE
:100E40003B690023FB600F4B1B6B0E4A43F0010311
:100E500013630C4B1B6B03F00103FB60FB68102357
:100E60007B610323BB610023FB6107F11403194677
:100E7000054802F091F900BF2837BD4680BD00BF8C
:100E800000740040003802400000024080B582B08B
:100E900000AF78600021064802F0B7F87B680022B6
:100EA0000021034802F003F900BF0837BD4680BDAA
:100EB0008003002080B58AB000AF07F11403002240
:100EC0001A605A609A60DA601A6100233B61734BC2
:100ED0001B6B724A43F004031363704B1B6B03F0EC
:100EE00004033B613B690023FB606C4B1B6B6B4A4B
:100EF00043F080031363694B1B6B03F08003FB60BB
:100F0000FB680023BB60654B1B6B644A43F0010325
:100F10001363624B1B6B03F00103BB60BB680023D0
:100F20007B605E4B1B6B5D4A43F0020313635B4BBC
:100F30001B6B03F002037B607B6800233B60574B15
:100F40001B6B564A43F008031363544B1B6B03F0AF
:100F500008033B603B6800224AF23231504802F0FD
:100F6000C7FA01224FF480414D4802F0C1FA002235
:100F700040F6EC714B4802F0BBFA00224DF26331AF
:100F8000494802F0B5FA01224FF40041454802F009
:100F9000AFFA01221021444802F0AAFA4EF232338D
:100FA0007B610123BB610023FB6100233B6207F1EE
:100FB000140319463A4802F0EFF80D237B61002331
:100FC000BB610023FB6107F114031946344802F0AA
:100FD000E3F840F6EC737B610123BB610023FB6106
:100FE00000233B6207F1140319462E4802F0D4F89F
:100FF0004DF263337B610123BB610023FB6100235E
:101000003B6207F114031946274802F0C5F842F283
:1010100084437B610023BB610023FB6107F1140360
:101020001946214802F0B8F84FF480537B61002341
:10103000BB610023FB6107F114031946194802F054
:10104000ABF84FF400437B610123BB610023FB61DC
:1010500001233B6207F114031946124802F09CF881
:1010600004237B610023BB610023FB6107F11403B0
:1010700019460E4802F090F810237B610123BB61F2
:101080000023FB6101233B6207F114031946064864
:1010900002F082F800BF2837BD4680BD003802400C
:1010A000000802400000024000040240000C024020
:1010B00080B483B000AF78604FF06043D3F8803ED7
:1010C00003F00103002B13D04FF06043D3F8003E30
:1010D00003F00103002B0BD000E000BF4FF0604392
:1010E0001B68002BF9D04FF060437A68D2B21A70B7
:1010F0007B6818460C37BD465DF8047B70470000DE
:1011000080B582B000AF78607B681B680A4A934262
:1011100004D17968094800F0BBFD08E07B681B68D2
:10112000074A934203D17968064800F0B1FD00BF39
:101130000837BD4680BD00BF00000140A800002068
:1011400000040140A801002080B500AF01F094FD2B
:1011500000F02AF8FFF7AEFE00F0A6F8FFF728FE31
:1011600000F0ECFF01F03AF80D4B1B686FF0010244
:101170001A610B4803F016FD0A4B1B686FF0010261
:101180001A61084803F00EFD4FF49660FFF77EFEEB
:10119000FFF798FA01F014FBFFF75CFAFCE700BFD9
:1011A000F00300203804002080B594B000AF07F1B0
:1011B0001C0334220021184604F050F907F10803FB
:1011C00000221A605A609A60DA601A6100237B601C
:1011D0002A4B1B6C294A43F080531364274B1B6C2A
:1011E00003F080537B607B6800233B60244B1B68CB
:1011F00023F44043224A43F480431360204B1B688E
:1012000003F440433B603B680223FB610123BB6264
:101210001023FB6202237B630023BB630823FB6371
:1012200040233B6402237B640223BB640223FB64F0
:1012300007F11C03184602F01FFC0346002B01D0E7
:1012400000F02DF80F23BB600223FB6090233B616D
:101250004FF4A0537B614FF48053BB6107F1080347
:101260000021184602F078F90346002B01D000F067
:1012700016F800BF5037BD4680BD00BF00380240A1
:101280000070004080B582B000AF78607B6818467F
:10129000FFF70EFF7B6818460837BD4680BD80B457
:1012A00000AF72B600BFFEE780B500AF174B184A1B
:1012B0001A60164B4FF482725A60144B00229A60E7
:1012C000124B0022DA60114B00221A610F4B0022F0
:1012D0005A610E4B4FF400729A610C4B0822DA618E
:1012E0000A4B00221A62094B00225A62074B002265
:1012F0009A62064B0A22DA62044802F05BFE034659
:10130000002B01D0FFF7CBFF00BF80BD940300206E
:10131000003C004080B58AB000AF786007F114034C
:1013200000221A605A609A60DA601A617B681B6852
:10133000194A93422CD100233B61184B1B6C174A6E
:1013400043F400431364154B1B6C03F400433B61EF
:101350003B690023FB60114B1B6B104A43F00403F5
:1013600013630E4B1B6B03F00403FB60FB684FF42D
:10137000E0537B610223BB610023FB6103233B62DB
:1013800006237B6207F114031946054801F004FFA8
:1013900000BF2837BD4680BD003C004000380240F9
:1013A0000008024080B582B000AF78600B467B80B9
:1013B0007B8801221946786802F09AF800BF083746
:1013C000BD4680BD80B582B000AF78600B467B80A3
:1013D0007B8800221946786802F08AF800BF083737
:1013E000BD4680BD80B584B000AFF860B9603B6099
:1013F0001346FB80FB68BA68C3F8BC20FB68FA8818
:10140000A3F8C020FB683A68C3F8C420FB683A8B95
:10141000A3F8C820FB68D3F8C420FB68B3F8C83031
:1014200019461046FFF7CEFFFB68D3F8BC20FB68D7
:10143000B3F8C03019461046FFF7B4FF00BF1037AD
:10144000BD4680BD80B483B000AF78607B68002269
:10145000DA6679684FF000024FF00003C1E91C23FF
:101460007B6800229A6700BF0C37BD465DF8047B9D
:10147000704780B483B000AF78607B6801221A7037
:101480007B6801225A7000BF0C37BD465DF8047BB3
:10149000704780B483B000AF78607B6802221A7016
:1014A0007B6802225A7000BF0C37BD465DF8047B92
:1014B000704780B483B000AF786039607B683A6869
:1014C0009A677B689A6F7B68DB6E9A4206DD7B6861
:1014D00003221A707B6801225A7012E07B689A6FAF
:1014E0007B68DB6E9A4206DA7B6803221A707B689F
:1014F00002225A7005E07B6800221A707B68002285
:101500005A7000BF0C37BD465DF8047B704780B44D
:1015100083B000AF78607B6800221A707B6800227D
:101520005A707B6800229A6700BF0C37BD465DF891
:10153000047B704780B582B000AF78607B6893F819
:101540006630002B31D07B685B78002B2DD17B6817
:10155000DA6E7B6893F8653079689B000B445B68B2
:101560009A4217D17B6893F865301A467B6893F8E6
:101570006430013B9A4204D17B68002283F86520E5
:1015800013E07B6893F865300133DAB27B6883F847
:1015900065200AE07B6893F865307A689B00134405
:1015A0005B6819467868FFF784FF00BF0837BD46BF
:1015B00080BD80B485B000AFF860B9603B60134671
:1015C000FB80FB68BA68C3F88420FB68FA88A3F83C
:1015D0008820FB683A68C3F88C20FB683A8BA3F834
:1015E0009020FB68FA69C3F89420FB683A8CA3F852
:1015F0009820FB6800225A70FB680022DA66FB68BC
:10160000002283F8E220FB68002283F8FA2000BF62
:101610001437BD465DF8047B704780B485B000AFD9
:10162000F860B9603B601346FB80FB68BA68C3F89A
:10163000CC20FB68FA88A3F8D020FB683A68C3F88E
:10164000E420FB683A8BA3F8E820FB6847F22F52AE
:10165000A3F87C2000BF1437BD465DF8047B7047BB
:1016600080B584B000AFF860B9603B601346FB8082
:10167000FB68BA68C3F8D420FB68FA88A3F8D820BE
:10168000FB683A68C3F8EC20FB683A8BA3F8F020BB
:10169000FB680022DA66FB68012283F8DA20FB6827
:1016A000002283F8E220FB68012283F8F220FB6825
:1016B000002283F8FA20FB68D3F8D420FB68B3F843
:1016C000D8301946104601F0FBFE0346002B04D02B
:1016D000FB68012283F8E22003E0FB68002283F824
:1016E000E220FB68D3F8EC20FB68B3F8F030194631
:1016F000104601F0E5FE0346002B04D0FB680122F2
:1017000083F8FA2003E0FB68002283F8FA2000BF88
:101710001037BD4680BD80B584B000AF786000232F
:10172000FB737B681A687B689B881946104601F03A
:10173000C7FE03461A467B689B799A421BD07B689A
:101740001A687B689B881946104601F0B9FE03466B
:10175000012B02D10123FB7301E00223FB737B68A1
:101760001A687B689B881946104601F0A9FE03465B
:101770001A467B689A71FB7B18461037BD4680BDC0
:1017800080B584B000AF78600023FB737B689A68F3
:101790007B689B891946104601F092FE03461A4663
:1017A0007B689B7B9A4240D07B68DB7D002B16D107
:1017B0007B689A687B689B891946104601F080FE19
:1017C0000346002B05D17B6801229A750123FB7328
:1017D0001FE07B6800229A750223FB7319E07B6887
:1017E000DB7D012B15D17B689A687B689B89194644
:1017F000104601F065FE0346002B05D07B680122F0
:101800009A750123FB7304E07B6800229A7502231A
:10181000FB737B689A687B689B891946104601F0C8
:101820004FFE03461A467B689A73FB7B18461037B7
:10183000BD4680BD80B582B000AF78600B46FB70BE
:10184000FB78022B0ED0022B10DC002B02D0012BD8
:1018500004D00BE07868FFF75AFE07E07868FFF7DE
:1018600008FE03E07868FFF714FE00BF00BF0837EA
:10187000BD4680BD80B485B000AF78607B68002233
:1018800083F866200023FB7308E0FB7B7A689B00EB
:10189000134400225A60FB7B0133FB737B6893F88F
:1018A0006430FA7B9A42F0D37B68002283F864208C
:1018B00000BF1437BD465DF8047B704780B485B027
:1018C00000AFF860B9603B601346FB80FB68BA6804
:1018D000C3F8DC20FB68FA88A3F8E020FB683A68CC
:1018E000C3F8F420FB683A8BA3F8F82000BF143744
:1018F000BD465DF8047B704780B582B000AF78606C
:101900007B6893F8E230012B0AD17B68D3F8DC20A6
:101910007B68B3F8E03019461046FFF743FD09E055
:101920007B68D3F8DC207B68B3F8E03019461046BA
:10193000FFF748FD7B6893F8FA30012B0AD17B68EA
:10194000D3F8F4207B68B3F8F83019461046FFF757
:1019500029FD09E07B68D3F8F4207B68B3F8F83000
:1019600019461046FFF72EFD00BF0837BD4680BD63
:1019700080B485B000AFF860B9603B601346FB806F
:10198000FB68BA68C3F8A420FB68FA88A3F8A8200B
:10199000FB683A68C3F8AC20FB683A8BA3F8B02028
:1019A000FB683A68C3F8B420FB683A8BA3F8B82008
:1019B00000BF1437BD465DF8047B704780B582B028
:1019C00000AF78600B46FB70FB78002B00F0CF80F7
:1019D000FB78102B03D17B68082283F868207B6892
:1019E000082283F86820FB78013B0F2B00F2C080AF
:1019F00001A252F823F000BF391A0008771A000834
:101A0000711B0008B51A0008711B0008711B000843
:101A1000711B0008F31A0008711B0008711B0008F5
:101A2000711B0008711B0008711B0008711B000866
:101A3000711B0008311B00087B68D3F8A4007B6889
:101A4000B3F8A8300022194601F052FD7B68D3F8A4
:101A5000AC007B68B3F8B0300022194601F048FDB5
:101A60007B68D3F8B4007B68B3F8B830002219461D
:101A700001F03EFD7CE07B68D3F8A4007B68B3F8FE
:101A8000A8300122194601F033FD7B68D3F8AC0081
:101A90007B68B3F8B0300022194601F029FD7B685D
:101AA000D3F8B4007B68B3F8B8300022194601F0CF
:101AB0001FFD5DE07B68D3F8A4007B68B3F8A83015
:101AC0000022194601F014FD7B68D3F8AC007B6856
:101AD000B3F8B0300122194601F00AFD7B68D3F853
:101AE000B4007B68B3F8B8300022194601F000FD5D
:101AF0003EE07B68D3F8A4007B68B3F8A8300122ED
:101B0000194601F0F5FC7B68D3F8AC007B68B3F8AC
:101B1000B0300122194601F0EBFC7B68D3F8B40029
:101B20007B68B3F8B8300022194601F0E1FC1FE0F1
:101B30007B68D3F8A4007B68B3F8A830012219466B
:101B400001F0D6FC7B68D3F8AC007B68B3F8B0300A
:101B50000122194601F0CCFC7B68D3F8B4007B6805
:101B6000B3F8B8300122194601F0C2FC00E000BF12
:101B70000837BD4680BD00BF80B483B000AF786039
:101B800039607B68B3F87E3001339AB27B68A3F882
:101B90007E207B68B3F87E301E2B1FD97B68B3F89C
:101BA0007C3040F6B732934214D97B68B3F87C306E
:101BB000A3F5FA739AB27B68A3F87C207B68B3F82C
:101BC0007C203B681B68DA627B68B3F87C301A467D
:101BD0003B68DA607B680022A3F87E2000BF0C37E8
:101BE000BD465DF8047B704780B483B000AF786079
:101BF00039607B68B3F87E3001339AB27B68A3F812
:101C00007E207B68B3F87E300A2B1FD97B68B3F83F
:101C10007C304EF65E22934214D87B68B3F87C3059
:101C200003F57A739AB27B68A3F87C207B68B3F8DB
:101C30007C203B681B68DA627B68B3F87C301A460C
:101C40003B68DA607B680022A3F87E2000BF0C3777
:101C5000BD465DF8047B704780B483B000AF786008
:101C600039607B6844F61F62A3F87C207B68B3F878
:101C70007C203B681B68DA627B68B3F87C301A46CC
:101C80003B68DA6000BF0C37BD465DF8047B7047E7
:101C900080B582B000AF786039607B685B78002BDC
:101CA00068D07B68D3F894207B68B3F898301946E5
:101CB000104601F036FC7B68D3F894207B68B3F8BB
:101CC00098301946104601F0FBFB0346012B18D152
:101CD0007B685B78012B05D17B68DB6E5A1C7B68C7
:101CE000DA6608E07B685B78022B04D17B68DB6EE8
:101CF0005A1E7B68DA667B68DB6E1946786800F0EE
:101D000041F87B681B78032B2FD17B689A6F7B6827
:101D1000DB6ED31A002BB8BF5B42C82B04DD3968D9
:101D20007868FFF729FF29E07B689A6F7B68DB6E94
:101D3000D31A13F1C70F21DB7B689A6F7B68DB6EC8
:101D4000D31AC72B1ADC39687868FFF74DFF7B6818
:101D50009A6F7B68DB6E9A4210D139687868FFF71A
:101D60007BFF7868FFF7D3FB08E039687868FFF7F6
:101D700003FF03E039687868FFF76EFF00BF08379C
:101D8000BD4680BD2DE9B04382B000AF78603960B8
:101D90003968C8170A46034646F2A81101FB03F04A
:101DA000002102FB01F1014446F2A810A2FB00450C
:101DB0004B191D467B6893F86830DBB200229846C9
:101DC000914642464B4620462946FEF771FA0246A6
:101DD0000B467968C1E91C2300BF0837BD46BDE842
:101DE000B083000080B582B000AF78607B681B785C
:101DF000032B00F2838001A252F823F00D1E00088D
:101E0000231E00084D1E0008771E00087B68D3F8CB
:101E100084007B68B3F888300122194601F068FB22
:101E20006CE07B68D3F88C007B68B3F890300022BC
:101E3000194601F05DFB7B68D3F884007B68B3F83A
:101E400088300022194601F053FB57E07B68D3F835
:101E50008C007B68B3F890300122194601F048FBF2
:101E60007B68D3F884007B68B3F888300022194679
:101E700001F03EFB42E07B685B78012B1CD17B6864
:101E8000D3F88C007B68B3F890300022194601F03B
:101E90002FFB7B68D3F884007B68B3F8883000227E
:101EA000194601F025FB7B68DA6E7B689B6F9A42CE
:101EB00002DB7868FFF72BFB7B685B78022B1CD179
:101EC0007B68D3F88C007B68B3F890300122194608
:101ED00001F00EFB7B68D3F884007B68B3F8883090
:101EE0000022194601F004FB7B68DA6E7B689B6F69
:101EF0009A4202DC7868FFF70AFB00BF00BF083790
:101F0000BD4680BD80B483B000AF00237B60104B22
:101F10005B6C0F4A43F4804353640D4B5B6C03F4DA
:101F200080437B607B6800233B60094B1B6C084A45
:101F300043F080531364064B1B6C03F080533B60EB
:101F40003B6800BF0C37BD465DF8047B704700BF9F
:101F50000038024080B400AFFEE780B400AFFEE777
:101F600080B400AFFEE780B400AFFEE780B400AFFE
:101F7000FEE780B400AF00BFBD465DF8047B70474C
:101F800080B400AF00BFBD465DF8047B704780B4ED
:101F900000AF00BFBD465DF8047B704780B500AF61
:101FA00000F0BCFE00BF80BD80B500AF024802F06B
:101FB00069FE00BF80BD00BFF003002080B500AF08
:101FC000024802F05FFE00BF80BD00BF3804002061
:101FD00080B586B000AFF860B9607A6000237B619D
:101FE0000AE0AFF300800146BB685A1CBA60CAB26F
:101FF0001A707B6901337B617A697B689A42F0DBF6
:102000007B6818461837BD4680BD80B586B000AFE6
:10201000F860B9607A6000237B6109E0BB685A1CF4
:10202000BA601B781846FFF72DF97B6901337B6195
:102030007A697B689A42F1DB7B6818461837BD469F
:1020400080BD80B483B000AF78604FF0FF33184696
:102050000C37BD465DF8047B704780B483B000AF99
:10206000786039603B684FF400525A60002318468C
:102070000C37BD465DF8047B704780B483B000AF79
:102080007860012318460C37BD465DF8047B704725
:1020900080B485B000AFF860B9607A60002318465C
:1020A0001437BD465DF8047B7047000080B586B0EC
:1020B00000AF7860144A154BD31A7B617B693B6192
:1020C000134B1B68002B02D1114B124A1A60104BA4
:1020D0001A687B6813443A699A4207D203F094F96C
:1020E00003460C221A604FF0FF3309E0084B1B68CF
:1020F000FB60074B1A687B681344054A1360FB6852
:1021000018461837BD4680BD0000022000040000BC
:10211000EC0300209804002080B400AF064BD3F8F5
:102120008830054A43F47003C2F8883000BFBD46CA
:102130005DF8047B704700BF00ED00E080B586B01D
:1021400000AF07F1080300221A605A609A60DA6053
:102150003B4600221A605A601E4B1F4A1A601D4BF4
:1021600000225A601B4B00229A601A4B42F20F72F7
:10217000DA60184B00221A61164B00225A61154B87
:1021800000229A61134802F0BDFC0346002B01D0E7
:10219000FFF785F84FF48053BB6007F10803194639
:1021A0000C4802F077FE0346002B01D0FFF777F8CA
:1021B00000233B6000237B603B461946054803F043
:1021C00093F80346002B01D0FFF769F800BF1837DA
:1021D000BD4680BDF00300200000014080B586B000
:1021E00000AF07F1080300221A605A609A60DA60B3
:1021F0003B4600221A605A601E4B1F4A1A601D4B54
:1022000000225A601B4B00229A601A4B42F20F7256
:10221000DA60184B00221A61164B00225A61154BE6
:1022200000229A61134802F06DFC0346002B01D096
:10223000FFF735F84FF48053BB6007F108031946E8
:102240000C4802F027FE0346002B01D0FFF727F8C9
:1022500000233B6000237B603B461946054803F0A2
:1022600043F80346002B01D0FFF719F800BF1837D9
:10227000BD4680BD380400200004014080B584B014
:1022800000AF78607B681B681C4A934216D100231C
:10229000FB601B4B5B6C1A4A43F001035364184B01
:1022A0005B6C03F00103FB60FB6800220021192036
:1022B00000F053FE192000F06CFE1AE07B681B68EA
:1022C000104A934215D10023BB600D4B5B6C0C4A46
:1022D00043F0020353640A4B5B6C03F00203BB60E0
:1022E000BB68002200212C2000F037FE2C2000F0DB
:1022F00050FE00BF1037BD4680BD00BF000001404A
:10230000003802400004014080B582B000AF00F008
:10231000DDF90346FB71134B1B78FA799A421BD007
:10232000FB79142B12D0FB79172B02D100F01CF88B
:102330000CE0FB791C2B02D100F0D1F906E0FB790F
:10234000002B03D100F05BFC00F062FC054AFB7936
:102350001370044B1B7800E0FF2318460837BD4676
:1023600080BD00BFA802002090B583B000AF00F090
:1023700094F903461A462E4BA3F866202C4BB3F86B
:102380006630002B4FD04FF4856000F0B3F9034660
:102390009BB21B02BB8040F2294000F0ABF9034620
:1023A0009AB2BB881344BB807B88C3F30C037B8049
:1023B0004FF4C0433B800023FB800FE03A88FB884A
:1023C00013449BB2FC88184600F094F903461A4661
:1023D000174B23445A70FB880133FB80144BB3F82E
:1023E0006630FA889A42E9D3114B012283F86820BB
:1023F0000F4BB3F86620BB881344BB80BB881B0A15
:102400009BB2DBB219464FF4856000F0A9F9BB8896
:10241000DBB2194640F2294000F0A2F9402140F217
:10242000014000F09DF900BF0C37BD4690BD00BFD4
:10243000A802002090B58FB000AFF860B960C7E97E
:10244000002340F2224000F055F903469BB21B02E4
:102450009CB240F2234000F04DF903469BB2234466
:10246000FB85FB8DC3F30C03FB85FB8D03F58043DC
:10247000FB86182387F82D30FB681B16DBB23B74F4
:10248000FB681B14DBB27B74FB681B12DBB2BB74F2
:10249000FB68DBB2FB74BB681B16DBB23B75BB6829
:1024A0001B14DBB27B75BB681B12DBB2BB75BB6850
:1024B000DBB2FB75D7E900014FF000024FF00003DB
:1024C0000A16CB17D3B23B76D7E900014FF00002D2
:1024D0004FF000030A14CB17D3B27B76D7E9000183
:1024E0004FF000024FF000030A12CB17D3B2BB76B5
:1024F000D7E900014FF000024FF000030A00CB17AC
:10250000D3B2FB76D7E900014FF000024FF0000391
:10251000020E42EA01220B16D3B23B77D7E9000143
:102520004FF000024FF00003020C42EA01420B148C
:10253000D3B27B77D7E900014FF000024FF00003E0
:10254000020A42EA01620B12D3B2BB773B78FB77F7
:10255000D7E912014FF000024FF000030A16CB1723
:10256000D3B287F82030D7E912014FF000024FF0C4
:1025700000030A14CB17D3B287F82130D7E9120130
:102580004FF000024FF000030A12CB17D3B287F8C6
:102590002230D7E912014FF000024FF000030A0089
:1025A000CB17D3B287F82330D7E912014FF00002DE
:1025B0004FF00003020E42EA01220B16D3B287F855
:1025C0002430D7E912014FF000024FF00003020C53
:1025D00042EA01420B14D3B287F82530D7E9120141
:1025E0004FF000024FF00003020A42EA01620B12B0
:1025F000D3B287F8263097F8483087F8273040F272
:10260000244000F077F803469BB21B029CB240F2D4
:10261000254000F06FF803469BB223447B8597F872
:102620002D309AB27B8D13447B857B8D1B0A9BB228
:10263000DBB2194640F2244000F092F87B8DDBB209
:10264000194640F2254000F08BF800233B6316E06A
:10265000FB8EB3F5C04F02D34FF48043FB8607F1E6
:1026600010023B6B13441A78FB8E1146184600F09B
:1026700077F8FB8E0133FB863B6B01333B6397F8A6
:102680002D303A6B9A42E3DB202140F2014000F00A
:1026900067F800BF3C37BD4690BD80B582B000AF43
:1026A00040F2264000F026F803469BB21B02FB8056
:1026B00040F2274000F01EF803469AB2FB8813440C
:1026C000FB80FB8818460837BD4680BD80B500AF4B
:1026D00040F2034000F00EF80346184680BD80B576
:1026E00000AF00F083FA00F08AFA00F091FA00BF20
:1026F00080BD000080B584B000AF0346FB800F238F
:102700003B73FB881B0A9BB2DBB27B73FB88DBB29B
:10271000BB7300224FF400410F4800F0E9FE07F1BF
:102720000C014FF47A7303220C4801F0CCFC07F142
:1027300008014FF47A730122084801F000FE0122DB
:102740004FF40041044800F0D3FEBB68DBB21846EA
:102750001037BD4680BD00BF00000240940300203A
:1027600080B584B000AF03460A46FB8013467B71F8
:10277000F0233B73FB881B0A9BB2DBB27B73FB88A5
:10278000DBB2BB737B79FB7300224FF400410A4834
:1027900000F0AEFE07F10C014FF0FF3304220748B2
:1027A00001F091FC01224FF40041034800F0A0FE2B
:1027B00000BF1037BD4680BD0000024094030020DA
:1027C00098B500AFD74802F0D7FE00221021D648B6
:1027D00000F08EFE0A2000F0C1FA01221021D2483A
:1027E00000F086FE642000F0B9FA80210020FFF797
:1027F000B7FF012000F0B2FA012000F0AFFACB4899
:1028000002F0BAFE0020FFF775FF03460022802188
:10281000C74802F02BFE012000F0A0FA012116208B
:10282000FFF79EFF012000F099FA1620FFF762FFE4
:10283000034616220121BF4802F018FE0F2117207F
:10284000FFF78EFF012000F089FA1720FFF752FFF3
:10285000034617220F21B84802F008FEA0211820D5
:10286000FFF77EFF012000F079FA1820FFF742FF02
:1028700003461822A021B14802F0F8FD01211920D9
:10288000FFF76EFF012000F069FA1920FFF732FF11
:10289000034619220121AA4802F0E8FDA94B1B7842
:1028A00019460120FFF75CFF012000F057FAA54B05
:1028B0001B781C460120FFF71DFF0346012221461D
:1028C000A14802F0D3FD9F4B5B7819460220FFF729
:1028D00047FF012000F042FA9A4B5B781C46022029
:1028E000FFF708FF034601222146984802F0BEFD8B
:1028F000944B9B7819460320FFF732FF012000F02C
:102900002DFA904B9B781C460320FFF7F3FE0346FD
:10291000012221468E4802F0A9FD8A4BDB78194638
:102920000420FFF71DFF012000F018FA854BDB782B
:102930001C460420FFF7DEFE03460122214685489F
:1029400002F094FD844B1B7819460920FFF708FF1D
:10295000012000F003FA804B1B781C460920FFF78A
:10296000C9FE0346092221467C4802F07FFD7A4BCE
:102970005B7819460A20FFF7F3FE012000F0EEF91C
:10298000754B5B781C460A20FFF7B4FE03460A220B
:102990002146734802F06AFD6F4B9B7819460B2065
:1029A000FFF7DEFE012000F0D9F96B4B9B781C4647
:1029B0000B20FFF79FFE03460B222146694802F0D9
:1029C00055FD654BDB7819460C20FFF7C9FE012049
:1029D00000F0C4F9604BDB781C460C20FFF78AFE40
:1029E00003460C222146604802F040FD5A4B1B79F9
:1029F00019460D20FFF7B4FE012000F0AFF9564B49
:102A00001B791C460D20FFF775FE03460D2221465B
:102A1000564802F02BFD504B5B7919460E20FFF70C
:102A20009FFE012000F09AF94B4B5B791C460E206B
:102A3000FFF760FE03460E2221464D4802F016FDC8
:102A40004C4B1B7819460520FFF78AFE012000F049
:102A500085F9484B5B7819460620FFF781FE012077
:102A600000F07CF9434B9B7819460720FFF778FE6E
:102A7000012000F073F93F4BDB7819460820FFF77F
:102A80006FFE012000F06AF93B4B1B7819460F20BE
:102A9000FFF766FE012000F061F9374B5B781946BD
:102AA0001020FFF75DFE012000F058F9324B9B78B3
:102AB00019461120FFF754FE012000F04FF92E4B6C
:102AC000DB7819461220FFF74BFE012000F046F993
:102AD000294BDB781C461220FFF70CFE034612221E
:102AE0002146264802F0C2FC002140F20440FFF7D4
:102AF00037FE012000F032F90A2140F20540FFF7CD
:102B00002FFE012000F02AF903211A20FFF728FEEA
:102B1000012000F023F903211B20FFF721FE0120F3
:102B20002EE000BF8C64000800040240A06400088E
:102B3000B4640008DC64000804650008306500081F
:102B40005C6500080400002084650008B06500088A
:102B5000DC650008086600081000002034660008E4
:102B6000606600088C660008B8660008E466000825
:102B70001067000808000020000000203C670008E3
:102B800000F0ECF801214FF48060FFF7E9FD01202F
:102B900000F0E4F8012140F20140FFF7E1FD0120DF
:102BA00000F0DCF840F20340FFF7A4FD03461946AD
:102BB0000C4802F05BFC022140F20140FFF7D0FD1F
:102BC000012000F0CBF840F20340FFF793FD0346ED
:102BD0001946044802F04AFC034802F0CDFC00BF4D
:102BE00098BD00BF686700088067000880B500AF27
:102BF000102140F20140FFF7B3FD00BF80BD80B55A
:102C000000AF012140F20140FFF7AAFD00BF80BDE7
:102C100080B500AF022140F20140FFF7A1FD00BFE7
:102C200080BD0000DFF834D00D480E490E4A002365
:102C300002E0D458C4500433C4188C42F9D30B4A70
:102C40000B4C002301E013600432A242FBD3FFF7D8
:102C500063FA02F0DFFBFEF777FA7047000002200C
:102C60000000002084000020506800088800002038
:102C700094040020FEE7000080B500AF0E4B1B68F7
:102C80000D4A43F4007313600B4B1B680A4A43F46C
:102C900080631360084B1B68074A43F4807313601A
:102CA000032000F04FF90F2000F008F8FFF72AF991
:102CB0000023184680BD00BF003C024080B582B0B2
:102CC00000AF7860124B1A68124B1B7819464FF40C
:102CD0007A73B3FBF1F3B2FBF3F3184600F067F934
:102CE0000346002B01D001230EE07B680F2B0AD88E
:102CF000002279684FF0FF3000F02FF9064A7B6818
:102D00001360002300E0012318460837BD4680BD4C
:102D10000C0000201C0000201800002080B400AF30
:102D2000064B1B781A46064B1B681344044A136073
:102D300000BFBD465DF8047B704700BF1C0000204B
:102D40008004002080B400AF034B1B681846BD46CA
:102D50005DF8047B704700BF8004002080B584B01C
:102D600000AF7860FFF7EEFFB8607B68FB60FB6840
:102D7000B3F1FF3F05D00A4B1B781A46FB6813449A
:102D8000FB6000BFFFF7DEFF0246BB68D31AFA689C
:102D90009A42F7D800BF00BF1037BD4680BD00BFC4
:102DA0001C00002080B485B000AF78607B6803F021
:102DB0000703FB600C4BDB68BB60BA684FF6FF0390
:102DC0001340BB60FB681A02BB68134343F0BF6348
:102DD00043F40033BB60044ABB68D36000BF1437C0
:102DE000BD465DF8047B704700ED00E080B400AFA5
:102DF000044BDB681B0A03F007031846BD465DF869
:102E0000047B704700ED00E080B483B000AF034660
:102E1000FB7197F90730002B0BDBFB7903F01F02E6
:102E2000074997F907305B09012000FA02F241F8DF
:102E3000232000BF0C37BD465DF8047B704700BF00
:102E400000E100E080B483B000AF03463960FB715D
:102E500097F90730002B0ADB3B68DAB20C4997F987
:102E600007301201D2B20B4483F800230AE03B681A
:102E7000DAB20849FB7903F00F03043B1201D2B226
:102E80000B441A7600BF0C37BD465DF8047B7047D3
:102E900000E100E000ED00E080B489B000AFF86030
:102EA000B9607A60FB6803F00703FB61FB69C3F15B
:102EB0000703042B28BF0423BB61FB690433062BE3
:102EC00002D9FB69033B00E000237B614FF0FF3236
:102ED000BB6902FA03F3DA43BB681A407B699A4084
:102EE0004FF0FF317B6901FA03F3D9437B680B4054
:102EF000134318462437BD465DF8047B7047000035
:102F000080B582B000AF78607B68013BB3F1807F11
:102F100001D301230FE00A4A7B68013B53600F2174
:102F20004FF0FF30FFF78EFF054B00229A60044BF5
:102F300007221A60002318460837BD4680BD00BF2F
:102F400010E000E080B582B000AF78607868FFF7ED
:102F500029FF00BF0837BD4680BD80B586B000AFF1
:102F60000346B9607A60FB7300237B61FFF73EFF85
:102F700078617A68B9687869FFF78EFF024697F939
:102F80000F3011461846FFF75DFF00BF1837BD46EA
:102F900080BD80B582B000AF0346FB7197F9073062
:102FA0001846FFF731FF00BF0837BD4680BD80B52A
:102FB00082B000AF78607868FFF7A2FF034618463A
:102FC0000837BD4680BD80B582B000AF78607B68B1
:102FD000002B01D1012314E07B681B79DBB2002BAD
:102FE00005D17B6800225A717868FDF70BFF7B687A
:102FF00002221A717B6800221A617B6801221A7111
:10300000002318460837BD4680BD80B483B000AFAA
:10301000786039607B685B79012B01D1022340E045
:103020007B6801225A717B6802221A717B681B68D7
:1030300019683B6803F0100301229A407B681B6803
:103040000A431A603B68002B0FD17B681B681B6822
:1030500003F03C033C2B1DD17B681B685A687B68DE
:103060001B6842F001025A6014E07B681B681B6811
:1030700003F470123B6803F010033C2101FA03F3E0
:103080009A4207D17B681B685A687B681B6842F0CC
:1030900002025A607B6801221A717B6800225A7111
:1030A000002318460C37BD465DF8047B704780B49A
:1030B00087B000AFF860B9607A603B6000237B6145
:1030C000FB681B687B61BB68002B05D17A697B6854
:1030D000134408337B6104E07A697B68134414333A
:1030E0007B617B691A463B681360002318461C37D6
:1030F000BD465DF8047B704780B487B000AFF860D0
:10310000B9607A60FB685B79012B01D102233CE056
:10311000FB6801225A71FB6802221A71FB681B6866
:103120001B687B617B6803F0100340F6FE7202FAB5
:1031300003F3DB437A6913407B61BB681A68BB68A1
:103140005B6813433B617B6803F010033A6902FA42
:1031500003F37A6913437B61FB681B687A691A6021
:10316000FB681B6819687B6803F01003C02202FA31
:1031700003F3DA43FB681B680A401A60FB6801220C
:103180001A71FB6800225A71002318461C37BD468D
:103190005DF8047B7047000080B489B000AF7860B0
:1031A000396000237B6100233B610023BB61002366
:1031B000FB6165E10122FB6902FA03F37B613B6875
:1031C0001B687A6913403B613A697B699A4240F017
:1031D00054813B685B6803F00303012B05D03B6817
:1031E0005B6803F00303022B30D17B689B68BB61F3
:1031F000FB695B00032202FA03F3DB43BA69134065
:10320000BB613B68DA68FB695B0002FA03F3BA69E9
:103210001343BB617B68BA699A607B685B68BB617A
:103220000122FB6902FA03F3DB43BA691340BB6175
:103230003B685B681B0903F00102FB6902FA03F3B8
:10324000BA691343BB617B68BA695A603B685B68C3
:1032500003F00303032B17D07B68DB68BB61FB69BA
:103260005B00032202FA03F3DB43BA691340BB613C
:103270003B689A68FB695B0002FA03F3BA6913437F
:10328000BB617B68BA69DA603B685B6803F0030383
:10329000022B23D1FB69DA087B68083253F822300D
:1032A000BB61FB6903F007039B000F2202FA03F3E3
:1032B000DB43BA691340BB613B681A69FB6903F0E1
:1032C00007039B0002FA03F3BA691343BB61FB696E
:1032D000DA087B680832B96943F822107B681B68FA
:1032E000BB61FB695B00032202FA03F3DB43BA69AB
:1032F0001340BB613B685B6803F00302FB695B0042
:1033000002FA03F3BA691343BB617B68BA691A60B6
:103310003B685B6803F44033002B00F0AE80002371
:10332000FB605D4B5B6C5C4A43F4804353645A4BD7
:103330005B6C03F48043FB60FB68584AFB699B08A5
:10334000023352F82330BB61FB6903F003039B0097
:103350000F2202FA03F3DB43BA691340BB617B68B7
:103360004F4A934225D07B684E4A93421FD07B68D8
:103370004D4A934219D07B684C4A934213D07B68E4
:103380004B4A93420DD07B684A4A934207D07B68F0
:10339000494A934201D106230CE007230AE00523A2
:1033A00008E0042306E0032304E0022302E00123F3
:1033B00000E00023FA6902F0030292009340BA6928
:1033C0001343BB613549FB699B080233BA6941F875
:1033D00023203A4B9B68BB613B69DB43BA691340CE
:1033E000BB613B685B6803F48013002B03D0BA69B0
:1033F0003B691343BB61314ABB6993602F4BDB6868
:10340000BB613B69DB43BA691340BB613B685B68E6
:1034100003F40013002B03D0BA693B691343BB616B
:10342000264ABB69D360254B5B68BB613B69DB43C4
:10343000BA691340BB613B685B6803F40033002B3F
:1034400003D0BA693B691343BB611C4ABB69536033
:103450001A4B1B68BB613B69DB43BA691340BB6114
:103460003B685B6803F48033002B03D0BA693B6987
:103470001343BB61114ABB691360FB690133FB61F4
:10348000FB690F2B7FF696AE00BF00BF2437BD4609
:103490005DF8047B704700BF0038024000380140EF
:1034A000000002400004024000080240000C0240FC
:1034B000001002400014024000180240003C01408D
:1034C00080B485B000AF78600B467B807B681A695A
:1034D0007B881340002B02D00123FB7301E0002303
:1034E000FB73FB7B18461437BD465DF8047B7047C1
:1034F00080B483B000AF78600B467B8013467B704E
:103500007B78002B03D07A887B689A6103E07B8804
:103510001A047B689A6100BF0C37BD465DF8047BD6
:10352000704780B485B000AF78600B467B807B68C5
:103530005B69FB607A88FB6813401A04FB68D94317
:103540007B880B401A437B689A6100BF1437BD46E5
:103550005DF8047B7047000080B584B000AF7860F0
:1035600039607B68002B01D10123CCE0684B1B68DC
:1035700003F00F033A689A420CD9654B3A68D2B20D
:103580001A70634B1B6803F00F033A689A4201D02C
:103590000123B8E07B681B6803F00203002B20D0F6
:1035A0007B681B6803F00403002B05D0594B9B6814
:1035B000584A43F4E05393607B681B6803F00803A8
:1035C000002B05D0534B9B68524A43F460439360F1
:1035D000504B9B6823F0F0027B689B684D49134376
:1035E0008B607B681B6803F00103002B44D07B6871
:1035F0005B68012B07D1474B1B6803F40033002B9A
:1036000019D101237FE07B685B68022B03D07B68C4
:103610005B68032B07D13F4B1B6803F00073002B43
:1036200009D101236FE03B4B1B6803F00203002B21
:1036300001D1012367E0374B9B6823F003027B68CD
:103640005B68344913438B60FFF77CFBF8600AE04A
:10365000FFF778FB0246FB68D31A41F288329342A7
:1036600001D903234FE02B4B9B6803F00C027B68CE
:103670005B689B009A42EBD1254B1B6803F00F035C
:103680003A689A420CD2224B3A68D2B21A70204B56
:103690001B6803F00F033A689A4201D0012332E01D
:1036A0007B681B6803F00403002B08D0194B9B6850
:1036B00023F4E0527B68DB68164913438B607B6818
:1036C0001B6803F00803002B09D0124B9B6823F4FE
:1036D00060427B681B69DB000E4913438B6000F07E
:1036E00021F802460B4B9B681B0903F00F030A49A4
:1036F000CB5C22FA03F3094A1360094B1B68184696
:10370000FFF7DCFA002318461037BD4680BD00BF26
:10371000003C024000380240986700080C0000207E
:10372000180000202DE9B04FA6B000AF0023C7F865
:103730008C300023C7F894300023C7F8883000236A
:10374000C7F884300023C7F89030C84B9B6803F05B
:103750000C030C2B00F27E8101A252F823F000BF73
:1037600095370008553A0008553A0008553A0008C0
:103770009D370008553A0008553A0008553A0008A8
:10378000A5370008553A0008553A0008553A000890
:103790000F390008B64BC7F890305FE1B54BC7F85A
:1037A00090305BE1B14B5B6803F03F03C7F88C30AE
:1037B000AE4B5B6803F48003002B31D0AB4B5B68EE
:1037C0009B090022BB66FA66BB6EC3F308033B6627
:1037D00000237B66A74BD7E918452A4603FB02F274
:1037E0000023214601FB03F31344A24A2146A1FB17
:1037F0000212FA670A46BA67FA6F1344FB67D7F8F2
:103800008C300022BB65FA65D7E91623D7E91E0183
:10381000FCF79EFD02460B461346C7F8943064E061
:10382000924B5B689B0900223B657A653B6DC3F355
:103830000803BB640023FB64D7E9124522462B46EC
:103840004FF000004FF00001590141EAD2615001F0
:1038500002460B462146511A3961294663EB0103A2
:103860007B614FF000024FF00003D7E904AB5946EB
:103870008B01514643EA916351468A015146B2EBAE
:103880000108594663EB01094FF000024FF00003B5
:103890004FEAC90343EA58734FEAC8029046994673
:1038A000234618EB0303BB602B4649EB0303FB6085
:1038B0004FF000024FF00003D7E9024529468B0282
:1038C000214643EA915321468A0210461946D7F809
:1038D0008C3000223B647A64D7E91023FCF738FD72
:1038E00002460B461346C7F89430604B5B681B0CCE
:1038F00003F0030301335B00C7F88830D7F8942046
:10390000D7F88830B2FBF3F3C7F89030A6E0574BF6
:103910005B6803F03F03C7F88C30544B5B6803F4DB
:103920008003002B2AD0514B5B689B090022BB63AC
:10393000FA63BB6BC3F3080000214E4B03FB01F29B
:10394000002300FB03F313444A4AA0FB02127A67E8
:103950000A463A677A6F13447B67D7F88C300022A7
:103960003B637A63D7E90C23D7E91C01FCF7F0FC31
:1039700002460B461346C7F894305BE03B4B5B684E
:103980009B090022BB62FA62BB6AC3F308033B6275
:1039900000237B62D7E9088942464B464FF000007E
:1039A0004FF00001590141EAD261500102460B4635
:1039B0004146B2EB010A494663EB010B4FF00002AE
:1039C0004FF000034FEA8B1343EA9A634FEA8A12DF
:1039D000B2EB0A0463EB0B054FF000024FF000035B
:1039E000EB0043EA5473E20014461D464346E318D5
:1039F0003B604B4645EB03037B604FF000024FF00A
:103A00000003D7E9004529468B02214643EA91533A
:103A100021468A0210461946D7F88C300022BB6135
:103A2000FA61D7E90623FCF793FC02460B461346DE
:103A3000C7F894300D4B5B681B0F03F00703C7F802
:103A40008430D7F89420D7F88430B2FBF3F3C7F86A
:103A5000903003E0064BC7F8903000BFD7F89030A5
:103A600018469837BD46BDE8B08F00BF0038024009
:103A70000024F40040787D0180B586B000AF786006
:103A80007B68002B01D101238DE27B681B6803F06A
:103A90000103002B00F08380944B9B6803F00C0320
:103AA000042B19D0914B9B6803F00C03082B06D113
:103AB0008E4B5B6803F48003B3F5800F0CD08B4B07
:103AC0009B6803F00C030C2B12D1884B5B6803F44A
:103AD0008003B3F5800F0BD1844B1B6803F40033D4
:103AE000002B5BD07B685B68002B57D101235AE227
:103AF0007B685B68B3F5803F06D17C4B1B687B4AD3
:103B000043F4803313601DE07B685B68B3F5A02F3E
:103B10000CD1764B1B68754A43F480231360734BBA
:103B20001B68724A43F4803313600BE06F4B1B68D1
:103B30006E4A23F4803313606C4B1B686B4A23F48A
:103B4000802313607B685B68002B13D0FFF7FAF8C3
:103B5000386108E0FFF7F6F802463B69D31A642B98
:103B600001D903231FE2614B1B6803F40033002BD0
:103B7000F0D014E0FFF7E6F8386108E0FFF7E2F86C
:103B800002463B69D31A642B01D903230BE2574B3E
:103B90001B6803F40033002BF0D100E000BF7B680A
:103BA0001B6803F00203002B6FD0504B9B6803F09F
:103BB0000C03002B17D04D4B9B6803F00C03082B14
:103BC00005D14A4B5B6803F48003002B0BD0474BB5
:103BD0009B6803F00C030C2B1CD1444B5B6803F473
:103BE0008003002B16D1414B1B6803F00203002B0E
:103BF00005D07B68DB68012B01D00123D3E13B4B6F
:103C00001B6823F0F8027B681B69DB00374913430C
:103C10000B603AE07B68DB68002B20D0344B01223C
:103C20001A60FFF78FF8386108E0FFF78BF802465B
:103C30003B69D31A022B01D90323B4E12B4B1B6838
:103C400003F00203002BF0D0284B1B6823F0F8028E
:103C50007B681B69DB00254913430B6015E0244B8F
:103C600000221A60FFF76EF8386108E0FFF76AF883
:103C700002463B69D31A022B01D9032393E11B4B64
:103C80001B6803F00203002BF0D17B681B6803F074
:103C90000803002B36D07B685B69002B16D0154BD0
:103CA00001221A60FFF74EF8386108E0FFF74AF882
:103CB00002463B69D31A022B01D9032373E10B4B54
:103CC0005B6F03F00203002BF0D01BE0094B0022D6
:103CD0001A60FFF737F838610EE0FFF733F8024655
:103CE0003B69D31A022B07D903235CE10038024059
:103CF00000004742800E47428A4B5B6F03F002038D
:103D0000002BEAD17B681B6803F00403002B00F052
:103D100097800023FB75834B1B6C03F08053002BB3
:103D20000FD10023BB607F4B1B6C7E4A43F0805356
:103D300013647C4B1B6C03F08053BB60BB68012396
:103D4000FB75794B1B6803F48073002B18D1764BFD
:103D50001B68754A43F480731360FEF7F3FF386104
:103D600008E0FEF7EFFF02463B69D31A022B01D9A8
:103D7000032318E16C4B1B6803F48073002BF0D015
:103D80007B689B68012B06D1664B1B6F654A43F02D
:103D9000010313671CE07B689B68052B0CD1614B0A
:103DA0001B6F604A43F0040313675E4B1B6F5D4A51
:103DB00043F0010313670BE05A4B1B6F594A23F082
:103DC00001031367574B1B6F564A23F00403136715
:103DD0007B689B68002B15D0FEF7B4FF38610AE0C2
:103DE000FEF7B0FF02463B69D31A41F28832934294
:103DF00001D90323D7E04B4B1B6F03F00203002BC9
:103E0000EED014E0FEF79EFF38610AE0FEF79AFF5D
:103E100002463B69D31A41F28832934201D9032307
:103E2000C1E0404B1B6F03F00203002BEED1FB7D82
:103E3000012B05D13B4B1B6C3A4A23F08053136492
:103E40007B689B69002B00F0AD80364B9B6803F0CC
:103E50000C03082B60D07B689B69022B45D1334B48
:103E600000221A60FEF76EFF386108E0FEF76AFF75
:103E700002463B69D31A022B01D9032393E0294B55
:103E80001B6803F00073002BF0D17B68DA697B6854
:103E90001B6A1A437B685B6A9B011A437B689B6AB7
:103EA0005B08013B1B041A437B68DB6A1B061A4351
:103EB0007B681B6B1B071B4913434B601B4B012289
:103EC0001A60FEF73FFF386108E0FEF73BFF02464D
:103ED0003B69D31A022B01D9032364E0114B1B6801
:103EE00003F00073002BF0D05CE0104B00221A604E
:103EF000FEF728FF386108E0FEF724FF02463B6921
:103F0000D31A022B01D903234DE0064B1B6803F0A3
:103F10000073002BF0D145E07B689B69012B07D132
:103F2000012340E00038024000700040600047423A
:103F30001F4B5B68FB607B689B69012B30D0FB6883
:103F400003F480027B68DB699A4229D1FB6803F0A5
:103F50003F027B681B6A9A4222D1FA6847F6C07317
:103F600013407A68526A9201934219D1FB6803F4B4
:103F700040327B689B6A5B08013B1B049A420FD16D
:103F8000FB6803F070627B68DB6A1B069A4207D10C
:103F9000FB6803F0E0427B681B6B1B079A4201D071
:103FA000012300E0002318461837BD4680BD00BF3E
:103FB0000038024080B582B000AF78607B68002B8B
:103FC00001D101237BE07B685B6A002B08D17B6811
:103FD0005B68B3F5827F09D07B680022DA6105E077
:103FE0007B6800221A617B6800225A617B6800228C
:103FF0009A627B6893F85130DBB2002B06D17B6864
:10400000002283F850207868FDF784F97B6802224B
:1040100083F851207B681B681A687B681B6822F054
:1040200040021A607B685B6803F482727B689B685D
:1040300003F404431A437B68DB6803F400631A4308
:104040007B681B6903F002031A437B685B6903F01A
:1040500001031A437B689B6903F400731A437B686E
:10406000DB6903F038031A437B681B6A03F08003A3
:1040700042EA03017B689B6A03F400527B681B6879
:104080000A431A607B689B691B0C03F004017B6880
:104090005B6A03F010027B681B680A435A607B6806
:1040A0001B68DA697B681B6822F40062DA617B684E
:1040B00000225A657B68012283F8512000231846AC
:1040C0000837BD4680BD80B588B000AFF860B960E4
:1040D0003B601346FB800023FB77FB6893F850306E
:1040E000012B01D1022326E1FB68012283F8502035
:1040F000FEF728FEB861FB88FB82FB6893F851301D
:10410000DBB2012B02D00223FB770BE1BB68002B53
:1041100002D0FB88002B02D10123FB7702E1FB6870
:10412000032283F85120FB6800225A65FB68BA68B5
:104130001A63FB68FA889A86FB68FA88DA86FB6855
:1041400000229A63FB6800229A87FB680022DA87C4
:10415000FB6800225A64FB6800221A64FB689B68B3
:10416000B3F5004F0FD1FB681B681A68FB681B682A
:1041700022F040021A60FB681B681A68FB681B6823
:1041800042F480421A60FB681B681B6803F040031E
:10419000402B07D0FB681B681A68FB681B6842F05D
:1041A00040021A60FB68DB68B3F5006F4BD1FB6817
:1041B0005B68002B02D0FB8A012B3ED1FB681B6B96
:1041C0001A88FB681B68DA60FB681B6B9A1CFB682B
:1041D0001A63FB68DB8E9BB2013B9AB2FB68DA86FE
:1041E0002BE0FB681B689B6803F00203022B12D1D3
:1041F000FB681B6B1A88FB681B68DA60FB681B6B2B
:104200009A1CFB681A63FB68DB8E9BB2013B9AB277
:10421000FB68DA8611E0FEF795FD0246BB69D31A0A
:104220003A689A4203D83B68B3F1FF3F02D13B683A
:10423000002B02D10323FB7774E0FB68DB8E9BB27B
:10424000002BCED14CE0FB685B68002B02D0FB8AD0
:10425000012B40D1FB681A6BFB681B680C3312788A
:104260001A70FB681B6B5A1CFB681A63FB68DB8EB9
:104270009BB2013B9AB2FB68DA862CE0FB681B68B4
:104280009B6803F00203022B13D1FB681A6BFB68D7
:104290001B680C3312781A70FB681B6B5A1CFB6886
:1042A0001A63FB68DB8E9BB2013B9AB2FB68DA862D
:1042B00011E0FEF747FD0246BB69D31A3A689A42FD
:1042C00003D83B68B3F1FF3F02D13B68002B02D11A
:1042D0000323FB7726E0FB68DB8E9BB2002BCDD15E
:1042E000BA693968F86800F0CBFB0346002B02D0AE
:1042F000FB6820225A65FB689B68002B0AD10023CB
:104300003B61FB681B68DB683B61FB681B689B6863
:104310003B613B69FB685B6D002B02D00123FB779F
:1043200000E000BFFB68012283F85120FB680022F7
:1043300083F85020FB7F18462037BD4680BD80B5EE
:1043400088B002AFF860B9603B601346FB80002381
:10435000FB75FB685B68B3F5827F12D1FB689B68D5
:10436000002B0ED1FB68042283F85120FA883B68A9
:1043700000931346BA68B968F86800F0F1F803468C
:10438000EAE0FB6893F85030012B01D10223E3E00F
:10439000FB68012283F85020FEF7D4FC3861FB68EB
:1043A00093F85130DBB2012B02D00223FB75CAE037
:1043B000BB68002B02D0FB88002B02D10123FB75C8
:1043C000C1E0FB68042283F85120FB6800225A6593
:1043D000FB68BA689A63FB68FA889A87FB68FA8870
:1043E000DA87FB6800221A63FB6800229A86FB6862
:1043F0000022DA86FB6800221A64FB6800225A64F5
:10440000FB689B68B3F5004F0FD1FB681B681A6807
:10441000FB681B6822F040021A60FB681B681A6880
:10442000FB681B6822F480421A60FB681B681B68EB
:1044300003F04003402B07D0FB681B681A68FB6839
:104440001B6842F040021A60FB68DB68002B62D1F7
:104450002EE0FB681B689B6803F00103012B15D15C
:10446000FB681B6803F10C02FB689B6B1278D2B2ED
:104470001A70FB689B6B5A1CFB689A63FB68DB8FA6
:104480009BB2013B9AB2FB68DA8711E0FEF75AFC57
:1044900002463B69D31A3A689A4203D83B68B3F1A3
:1044A000FF3F02D13B68002B02D10323FB754AE09A
:1044B000FB68DB8F9BB2002BCBD131E0FB681B6824
:1044C0009B6803F00103012B13D1FB681B68DA68BA
:1044D000FB689B6B92B21A80FB689B6B9A1CFB6813
:1044E0009A63FB68DB8F9BB2013B9AB2FB68DA8769
:1044F00011E0FEF727FC02463B69D31A3A689A425C
:1045000003D83B68B3F1FF3F02D13B68002B02D1D7
:104510000323FB7517E0FB68DB8F9BB2002BCDD12B
:104520003A693968F86800F045FA0346002B02D072
:10453000FB6820225A65FB685B6D002B02D00123CB
:10454000FB7500E000BFFB68012283F85120FB6887
:10455000002283F85020FB7D18461837BD4680BDE9
:1045600080B58CB000AFF860B9607A607B800123C1
:10457000FB62002387F82B30FB6893F85030012B47
:1045800001D102238AE1FB68012283F85020FEF763
:10459000D9FB7862FB6893F8513087F82330FB68C9
:1045A0005B68FB617B887B8397F82330012B0FD0FE
:1045B000FB69B3F5827F07D1FB689B68002B03D1B1
:1045C00097F82330042B03D0022387F82B305BE1CC
:1045D000BB68002B05D07B68002B02D07B88002BAA
:1045E00003D1012387F82B304EE1FB6893F851305B
:1045F000DBB2042B03D0FB68052283F85120FB6853
:1046000000225A65FB687A689A63FB687A88DA87C1
:10461000FB687A889A87FB68BA681A63FB687A88AD
:10462000DA86FB687A889A86FB6800221A64FB683F
:1046300000225A64FB681B681B6803F04003402B90
:1046400007D0FB681B681A68FB681B6842F04002D1
:104650001A60FB68DB68B3F5006F78D1FB685B68B4
:10466000002B02D07B8B012B66D1FB681B6B1A8859
:10467000FB681B68DA60FB681B6B9A1CFB681A639B
:10468000FB68DB8E9BB2013B9AB2FB68DA8653E093
:10469000FB681B689B6803F00203022B1BD1FB68BD
:1046A000DB8E9BB2002B16D0FB6A012B13D1FB686B
:1046B0001B6B1A88FB681B68DA60FB681B6B9A1C13
:1046C000FB681A63FB68DB8E9BB2013B9AB2FB6806
:1046D000DA860023FB62FB681B689B6803F001031A
:1046E000012B19D1FB68DB8F9BB2002B14D0FB6828
:1046F0001B68DA68FB689B6B92B21A80FB689B6B45
:104700009A1CFB689A63FB68DB8F9BB2013B9AB2F1
:10471000FB68DA870123FB62FEF714FB02467B6A23
:10472000D31ABA6B9A4207D8BB6BB3F1FF3F03D0E1
:10473000032387F82B30A7E0FB68DB8E9BB2002BAE
:10474000A6D1FB68DB8F9BB2002BA1D17CE0FB687C
:104750005B68002B02D07B8B012B6BD1FB681A6B43
:10476000FB681B680C3312781A70FB681B6B5A1CB1
:10477000FB681A63FB68DB8E9BB2013B9AB2FB6855
:10478000DA8657E0FB681B689B6803F00203022B84
:104790001CD1FB68DB8E9BB2002B17D0FB6A012B70
:1047A00014D1FB681A6BFB681B680C3312781A7003
:1047B000FB681B6B5A1CFB681A63FB68DB8E9BB2A1
:1047C000013B9AB2FB68DA860023FB62FB681B6838
:1047D0009B6803F00103012B19D1FB68DB8F9BB2AF
:1047E000002B14D0FB681B68DA68FB689B6BD2B2A5
:1047F0001A70FB689B6B5A1CFB689A63FB68DB8F23
:104800009BB2013B9AB2FB68DA870123FB62FEF799
:1048100099FA02467B6AD31ABA6B9A4203D8BB6BE9
:10482000B3F1FF3F02D1BB6B002B03D1032387F809
:104830002B3029E0FB68DB8E9BB2002BA2D1FB68FA
:10484000DB8F9BB2002B9DD17A6AB96BF86800F0C0
:1048500017F90346002B06D0012387F82B30FB689D
:1048600020225A6510E0FB689B68002B0BD10023C7
:104870007B61FB681B68DB687B61FB681B689B686E
:104880007B617B6900E000BFFB68012283F8512057
:10489000FB68002283F8502097F82B3018463037F9
:1048A000BD4680BD80B588B000AFF860B9603B60A0
:1048B0001346FB71FEF746FA0246BB6A9B1A3A683A
:1048C0001344FB61FEF73EFAB861394B1B685B018C
:1048D0001B0DFA6902FB03F37B6154E03B68B3F103
:1048E000FF3F50D0FEF72EFA0246BB69D31AFA6991
:1048F0009A4202D9FB69002B3DD1FB681B685A68BC
:10490000FB681B6822F0E0025A60FB685B68B3F545
:10491000827F11D1FB689B68B3F5004F04D0FB6820
:104920009B68B3F5806F07D1FB681B681A68FB684A
:104930001B6822F040021A60FB689B6AB3F5005FB7
:104940000FD1FB681B681A68FB681B6822F40052D1
:104950001A60FB681B681A68FB681B6842F4005207
:104960001A60FB68012283F85120FB68002283F85B
:104970005020032317E07B69002B01D10023FB614A
:104980007B69013B7B61FB681B689A68BB681340CD
:10499000BA689A420CBF01230023DBB21A46FB79A6
:1049A0009A429BD1002318462037BD4680BD00BFE8
:1049B0000C00002080B586B002AFF860B9607A6064
:1049C000FB685B68B3F5827F11D1FB689B68B3F528
:1049D000004F04D0FB689B68B3F5806F07D1FB687C
:1049E0001B681A68FB681B6822F040021A60FB68AB
:1049F0005B68B3F5827F2AD1FB689B68B3F5806F53
:104A000012D07B680093BB6800228021F868FFF712
:104A100049FF0346002B2DD0FB685B6D43F020025D
:104A2000FB685A65032326E07B680093BB6800227D
:104A30000121F868FFF736FF0346002B1AD0FB6808
:104A40005B6D43F02002FB685A65032313E07B682B
:104A50000093BB6800220121F868FFF723FF03469B
:104A6000002B07D0FB685B6D43F02002FB685A65A2
:104A7000032300E0002318461037BD4680BD000028
:104A800080B588B002AFF860B9607A601B4B1B68D4
:104A90001B4AA2FB03235B0D4FF47A7202FB03F364
:104AA0007B61FB685B68B3F5827F12D17B68009302
:104AB000BB6800228021F868FFF7F4FE0346002B54
:104AC00016D0FB685B6D43F02002FB685A65032338
:104AD0000FE07B69002B0AD07B69013B7B61FB689F
:104AE0001B689B6803F08003802BF2D000E000BFBE
:104AF000002318461837BD4680BD00BF0C000020BB
:104B0000819F5E1680B582B000AF78607B68002B15
:104B100001D1012341E07B6893F83D30DBB2002BEB
:104B200006D17B68002283F83C207868FDF7A6FB5D
:104B30007B68022283F83D207B681A687B68043317
:104B40001946104600F096FA7B68012283F8462049
:104B50007B68012283F83E207B68012283F83F2096
:104B60007B68012283F840207B68012283F8412082
:104B70007B68012283F842207B68012283F843206E
:104B80007B68012283F844207B68012283F845205A
:104B90007B68012283F83D20002318460837BD4674
:104BA00080BD000080B485B000AF78607B6893F86A
:104BB0003D30DBB2012B01D001234EE07B680222A5
:104BC00083F83D207B681B68DA687B681B6842F0CD
:104BD0000102DA607B681B68234A934222D07B681B
:104BE0001B68B3F1804F1DD07B681B681F4A93423E
:104BF00018D07B681B681E4A934213D07B681B68E1
:104C00001C4A93420ED07B681B681B4A934209D012
:104C10007B681B68194A934204D07B681B68184A5A
:104C2000934211D17B681B689B6803F00703FB600C
:104C3000FB68062B10D07B681B681A687B681B68B2
:104C400042F001021A6007E07B681B681A687B6803
:104C50001B6842F001021A60002318461437BD4653
:104C60005DF8047B704700BF000001400004004075
:104C700000080040000C00400004014000400140DA
:104C80000018004080B582B000AF78607B681B6878
:104C90001B6903F00203022B22D17B681B68DB68CF
:104CA00003F00203022B1BD17B681B686FF002022A
:104CB0001A617B6801221A777B681B689B6903F085
:104CC0000303002B03D0786800F0B5F905E078689D
:104CD00000F0A7F9786800F0B8F97B6800221A772D
:104CE0007B681B681B6903F00403042B22D17B68DB
:104CF0001B68DB6803F00403042B1BD17B681B6873
:104D00006FF004021A617B6802221A777B681B68C5
:104D10009B6903F44073002B03D0786800F08BF993
:104D200005E0786800F07DF9786800F08EF97B681E
:104D300000221A777B681B681B6903F00803082BA5
:104D400022D17B681B68DB6803F00803082B1BD1AA
:104D50007B681B686FF008021A617B6804221A776F
:104D60007B681B68DB6903F00303002B03D07868C2
:104D700000F061F905E0786800F053F9786800F018
:104D800064F97B6800221A777B681B681B6903F053
:104D90001003102B22D17B681B68DB6803F0100323
:104DA000102B1BD17B681B686FF010021A617B68A7
:104DB00008221A777B681B68DB6903F44073002BB9
:104DC00003D0786800F037F905E0786800F029F939
:104DD000786800F03AF97B6800221A777B681B68D4
:104DE0001B6903F00103012B0ED17B681B68DB6894
:104DF00003F00103012B07D17B681B686FF00102F0
:104E00001A617868FCF77CF97B681B681B6903F002
:104E10008003802B0ED17B681B68DB6803F0800366
:104E2000802B07D17B681B686FF080021A6178685D
:104E300000F0E0FA7B681B681B6903F04003402B1D
:104E40000ED17B681B68DB6803F04003402B07D161
:104E50007B681B686FF040021A61786800F0FFF809
:104E60007B681B681B6903F02003202B0ED17B6835
:104E70001B68DB6803F02003202B07D17B681B68CD
:104E80006FF020021A61786800F0AAFA00BF0837B4
:104E9000BD4680BD80B584B000AF78603960002326
:104EA000FB737B6893F83C30012B01D10223B4E003
:104EB0007B68012283F83C207B68022283F83D2036
:104EC0007B681B689B68BB60BB6823F07703BB6093
:104ED000BB6823F47F43BB607B681B68BA689A6039
:104EE0003B681B68B3F5005F3ED0B3F5005F00F28E
:104EF0008780B3F5805F00F08680B3F5805F7FD850
:104F0000702B1AD0702B7BD8602B50D0602B77D8A9
:104F1000502B3CD0502B73D8402B58D0402B6FD8FF
:104F2000302B64D0302B6BD8202B60D0202B67D84F
:104F3000002B5CD0102B5AD062E07B6818683B686D
:104F400099683B685A683B68DB6800F0ADF97B689C
:104F50001B689B68BB60BB6843F07703BB607B68E2
:104F60001B68BA689A604FE07B6818683B6899686C
:104F70003B685A683B68DB6800F096F97B681B6801
:104F80009A687B681B6842F480429A603CE07B68C8
:104F900018683B6859683B68DB681A4600F00AF9F4
:104FA0007B681B685021184600F063F92CE07B6891
:104FB00018683B6859683B68DB681A4600F029F9B5
:104FC0007B681B686021184600F053F91CE07B6881
:104FD00018683B6859683B68DB681A4600F0EAF8D5
:104FE0007B681B684021184600F043F90CE07B68A1
:104FF0001A683B681B681946104600F03AF903E04E
:105000000123FB7300E000BF7B68012283F83D2091
:105010007B68002283F83C20FB7B18461037BD4696
:1050200080BD80B483B000AF786000BF0C37BD4650
:105030005DF8047B704780B483B000AF786000BF38
:105040000C37BD465DF8047B704780B483B000AF79
:10505000786000BF0C37BD465DF8047B704780B4B4
:1050600083B000AF786000BF0C37BD465DF8047BAD
:105070007047000080B485B000AF786039607B680D
:105080001B68FB607B68404A934213D07B68B3F196
:10509000804F0FD07B683D4A93420BD07B683C4ADF
:1050A000934207D07B683B4A934203D07B683A4ADD
:1050B000934208D1FB6823F07003FB603B685B6898
:1050C000FA681343FB607B682F4A93422BD07B68BE
:1050D000B3F1804F27D07B682C4A934223D07B6862
:1050E0002B4A93421FD07B682A4A93421BD07B688D
:1050F000294A934217D07B68284A934213D07B6891
:10510000274A93420FD07B68264A93420BD07B6894
:10511000254A934207D07B68244A934203D07B6898
:10512000234A934208D1FB6823F44073FB603B6839
:10513000DB68FA681343FB60FB6823F080023B687E
:105140005B691343FB607B68FA681A603B689A6886
:105150007B68DA623B681A687B689A627B680A4AF5
:10516000934203D07B680C4A934203D13B681A698F
:105170007B681A637B6801225A6100BF1437BD4601
:105180005DF8047B704700BF000001400004004050
:1051900000080040000C00400004014000400140B5
:1051A000004401400048014000180040001C00403D
:1051B0000020004080B487B000AFF860B9607A602A
:1051C000FB681B6A7B61FB681B6A23F00102FB68BA
:1051D0001A62FB689B693B613B6923F0F0033B610A
:1051E0007B681B013A6913433B617B6923F00A0327
:1051F0007B617A69BB6813437B61FB683A699A619A
:10520000FB687A691A6200BF1C37BD465DF8047BF3
:10521000704780B487B000AFF860B9607A60FB680F
:105220001B6A23F01002FB681A62FB689B697B61B2
:10523000FB681B6A3B617B6923F470437B617B687D
:105240001B037A6913437B613B6923F0A0033B6135
:10525000BB681B013A6913433B61FB687A699A6139
:10526000FB683A691A6200BF1C37BD465DF8047BD3
:10527000704780B485B000AF786039607B689B6808
:10528000FB60FB6823F07003FB603A68FB68134324
:1052900043F00703FB607B68FA689A6000BF14372D
:1052A000BD465DF8047B704780B487B000AFF860FE
:1052B000B9607A603B60FB689B687B617B6923F423
:1052C0007F437B613B681A027B681A43BB681343C8
:1052D0007A6913437B61FB687A699A6000BF1C3767
:1052E000BD465DF8047B704780B485B000AF786040
:1052F00039607B6893F83C30012B01D102235AE0DE
:105300007B68012283F83C207B68022283F83D20E1
:105310007B681B685B68FB607B681B689B68BB6085
:10532000FB6823F07003FB603B681B68FA6813435B
:10533000FB607B681B68FA685A607B681B68214ABF
:10534000934222D07B681B68B3F1804F1DD07B68ED
:105350001B681D4A934218D07B681B681B4A934206
:1053600013D07B681B681A4A93420ED07B681B6877
:10537000184A934209D07B681B68174A934204D0AD
:105380007B681B68154A93420CD1BB6823F08003ED
:10539000BB603B685B68BA681343BB607B681B6893
:1053A000BA689A607B68012283F83D207B680022FE
:1053B00083F83C20002318461437BD465DF8047B73
:1053C000704700BF0000014000040040000800409A
:1053D000000C004000040140004001400018004063
:1053E00080B483B000AF786000BF0C37BD465DF875
:1053F000047B704780B483B000AF786000BF0C3787
:10540000BD465DF8047B7047014B1868704700BFCC
:105410002000002070B50D4D0D4C641BA41000261B
:10542000A64209D10B4D0C4C01F024F8641BA410CA
:105430000026A64205D170BD55F8043B98470136B9
:10544000EEE755F8043B98470136F2E74868000854
:1054500048680008486800084C6800080244034691
:10546000934200D1704703F8011BF9E70FB40A4BD0
:1054700013B51C6824B1A36913B9204600F05EFA85
:1054800005AB049AA1680193204600F067FC02B0C6
:10549000BDE8104004B070472000002070B50E46F3
:1054A000054618B183690BB900F048FAAB69AC68DE
:1054B00013B9284600F042FA2C4B9C4220D16C686C
:1054C000636EDB0705D4A389980502D4A06D00F0B4
:1054D000D3FAA38919071DD52369DBB1013EA3685F
:1054E00016F8011F013BA36039BB002B38DA2246B6
:1054F0000A21284600F048F8013011D00A2511E0B1
:105500001B4B9C4201D1AC68DAE71A4B9C4208BFA6
:10551000EC68D5E72146284600F088F80028DDD061
:105520004FF0FF35636EDA0705D4A3899B0502D4DB
:10553000A06D00F0A2FA284670BD002B04DAA26923
:105540009A4206DC0A2904D023685A1C226019708A
:10555000C5E72246284600F017F80130BFD1DFE743
:1055600023680A255A1C22601D70DBE7CC670008FF
:10557000EC670008AC670008024B01461868FFF7AB
:105580008DBF00BF20000020F8B50E46144605462A
:1055900018B183690BB900F0D1F9214B9C422BD192
:1055A0006C68A369A360A3891A072FD523696BB31D
:1055B00023692068C01A6369F6B28342374604DC67
:1055C0002146284600F026F930BBA368013BA360C2
:1055D00023685A1C22601E7063690130834204D024
:1055E000A389DB0706D50A2E04D12146284600F000
:1055F00011F988B93846F8BD0A4B9C4201D1AC6814
:10560000CFE7094B9C4208BFEC68CAE72146284611
:1056100000F00CF80028CBD04FF0FF37EAE700BFCE
:10562000CC670008EC670008AC670008324B70B527
:105630001D6806460C4625B1AB6913B9284600F033
:105640007DF92E4B9C420FD16C68A389B4F90C20D4
:1056500019072CD4DD0611D40923336042F040032E
:10566000A3814FF0FF303EE0254B9C4201D1AC6856
:10567000EBE7244B9C4208BFEC68E6E7580712D5DD
:10568000616B41B104F14403994202D0304600F00D
:105690005BFA00236363A38923F02403A38100231F
:1056A000636023692360A38943F00803A38123690E
:1056B0004BB9A38903F42073B3F5007F03D02146CF
:1056C000304600F001FAA089B4F90C2010F0010373
:1056D0000AD00023A36063695B42A361236943B9D5
:1056E00010F08000BAD170BD810758BF6369A36014
:1056F000F4E70020F7E700BF20000020CC67000897
:10570000EC670008AC6700088A892DE9F04105467E
:1057100010070C4658D44B68002B05DC0B6C002B93
:1057200002DC0020BDE8F081E66A002EF9D00023FB
:1057300012F480522F682B6032D0606DA3895A0713
:1057400005D56368C01A636B0BB1236CC01A0023C4
:105750000246E66A216A2846B047431CA38906D15F
:1057600029681D292CD82A4ACA40D60728D50022E4
:105770006260D9042269226004D5421C01D12B68E1
:1057800003B96065616B2F600029CAD004F144033E
:10579000994202D0284600F0D7F900206063C1E7A3
:1057A000216A01232846B047411CC7D12B68002B32
:1057B000C4D01D2B01D0162B01D12F60B1E7A389D6
:1057C00043F04003A381ADE70F69002FA9D09307F1
:1057D0000E6808BF4B690F6018BF0023A6EB0708CF
:1057E0008B60B8F1000F9CDD216AA66A43463A46F9
:1057F0002846B047002806DCA38943F04003A38174
:105800004FF0FF308EE70744A8EB0008E9E700BF40
:105810000100402038B50B6905460C4613B9002538
:10582000284638BD18B183690BB900F087F8144BCE
:105830009C421BD16C68B4F90C30002BEFD0626E27
:10584000D00704D4990502D4A06D00F015F92846BC
:105850002146FFF759FF636EDA070546E0D4A389B6
:105860009B05DDD4A06D00F008F9D9E7054B9C42FB
:1058700001D1AC68DFE7044B9C4208BFEC68DAE773
:10588000CC670008EC670008AC670008002310B57F
:105890000446C0E90033C0E9043383608181436674
:1058A000C2818361194608225C30FFF7D7FD054BA2
:1058B0006362054BA362054BE362054B24622363DD
:1058C00010BD00BF05630008276300085F63000880
:1058D00083630008014900F0AFB800BF1558000805
:1058E00070B568224D1E55430E4605F1740100F057
:1058F00097F9044640B10021C0E900160C30A060C1
:1059000005F16802FFF7AAFD204670BD014800F0CE
:10591000B3B800BF85040020014800F0AEB800BF56
:1059200085040020014800F0A7B800BF86040020CD
:10593000014800F0A2B800BF8604002010B504465C
:10594000FFF7F0FFA3691BB1BDE81040FFF7F0BF00
:10595000C4E912332365134B134A1B68A262A342A6
:1059600004BF0123A361204600F020F860602046B8
:1059700000F01CF8A060204600F018F80022E0605B
:1059800004216068FFF782FFA06801220921FFF768
:105990007DFFE06802221221FFF778FF0123A36157
:1059A000D2E700BFA8670008D5580008F8B5074639
:1059B000FFF7ACFF1E4B1E68B36913B93046FFF703
:1059C000BDFF4836D6E90134013B03D533680BB33C
:1059D0003668F7E7B4F90C50D5B9164BE36004F11B
:1059E0005800656600F047F8FFF796FFC4E90155D7
:1059F000C4E904552560A5610822294604F15C002C
:105A0000FFF72CFDC4E90D55C4E912552046F8BD39
:105A10006834D9E704213846FFF762FF0446306056
:105A20000028D5D1FFF778FF0C233B60EEE700BFDD
:105A3000A86700080100FFFF2DE9F84306468846E5
:105A400000F148040027D4E90195B9F1010905D511
:105A50002468002CF7D13846BDE8F883AB89012BC8
:105A600007D9B5F90E30013303D029463046C04777
:105A700007436835E9E770477047704770B50E46D1
:105A8000B1F90E10002996B014461D4608DAB6F991
:105A90000C3000222A601A0610D44FF480630EE006
:105AA0006A4600F095FC0028F1DB019A02F470428E
:105AB000A2F500535A425A412A60EEE740230020E3
:105AC000236016B070BD00008B8973B59D07064634
:105AD0000C4607D504F1470323602361012363616A
